{
  "contractName": "SupplyChain",
  "abi": [
    {
      "inputs": [],
      "payable": true,
      "stateMutability": "payable",
      "type": "constructor"
    },
    {
      "anonymous": false,
      "inputs": [
        {
          "indexed": false,
          "name": "upc",
          "type": "uint256"
        }
      ],
      "name": "Harvested",
      "type": "event"
    },
    {
      "anonymous": false,
      "inputs": [
        {
          "indexed": false,
          "name": "upc",
          "type": "uint256"
        }
      ],
      "name": "Processed",
      "type": "event"
    },
    {
      "anonymous": false,
      "inputs": [
        {
          "indexed": false,
          "name": "upc",
          "type": "uint256"
        }
      ],
      "name": "Packed",
      "type": "event"
    },
    {
      "anonymous": false,
      "inputs": [
        {
          "indexed": false,
          "name": "upc",
          "type": "uint256"
        }
      ],
      "name": "ForSale",
      "type": "event"
    },
    {
      "anonymous": false,
      "inputs": [
        {
          "indexed": false,
          "name": "upc",
          "type": "uint256"
        }
      ],
      "name": "Sold",
      "type": "event"
    },
    {
      "anonymous": false,
      "inputs": [
        {
          "indexed": false,
          "name": "upc",
          "type": "uint256"
        }
      ],
      "name": "Shipped",
      "type": "event"
    },
    {
      "anonymous": false,
      "inputs": [
        {
          "indexed": false,
          "name": "upc",
          "type": "uint256"
        }
      ],
      "name": "Received",
      "type": "event"
    },
    {
      "anonymous": false,
      "inputs": [
        {
          "indexed": false,
          "name": "upc",
          "type": "uint256"
        }
      ],
      "name": "Purchased",
      "type": "event"
    },
    {
      "constant": false,
      "inputs": [],
      "name": "kill",
      "outputs": [],
      "payable": false,
      "stateMutability": "nonpayable",
      "type": "function"
    },
    {
      "constant": false,
      "inputs": [
        {
          "name": "_upc",
          "type": "uint256"
        },
        {
          "name": "_originFarmerID",
          "type": "address"
        },
        {
          "name": "_originFarmName",
          "type": "string"
        },
        {
          "name": "_originFarmInformation",
          "type": "string"
        },
        {
          "name": "_originFarmLatitude",
          "type": "string"
        },
        {
          "name": "_originFarmLongitude",
          "type": "string"
        },
        {
          "name": "_productNotes",
          "type": "string"
        }
      ],
      "name": "harvestItem",
      "outputs": [],
      "payable": false,
      "stateMutability": "nonpayable",
      "type": "function"
    },
    {
      "constant": false,
      "inputs": [
        {
          "name": "_upc",
          "type": "uint256"
        }
      ],
      "name": "processItem",
      "outputs": [],
      "payable": false,
      "stateMutability": "nonpayable",
      "type": "function"
    },
    {
      "constant": false,
      "inputs": [
        {
          "name": "_upc",
          "type": "uint256"
        }
      ],
      "name": "packItem",
      "outputs": [],
      "payable": false,
      "stateMutability": "nonpayable",
      "type": "function"
    },
    {
      "constant": false,
      "inputs": [
        {
          "name": "_upc",
          "type": "uint256"
        },
        {
          "name": "_price",
          "type": "uint256"
        }
      ],
      "name": "sellItem",
      "outputs": [],
      "payable": false,
      "stateMutability": "nonpayable",
      "type": "function"
    },
    {
      "constant": false,
      "inputs": [
        {
          "name": "_upc",
          "type": "uint256"
        }
      ],
      "name": "buyItem",
      "outputs": [],
      "payable": true,
      "stateMutability": "payable",
      "type": "function"
    },
    {
      "constant": false,
      "inputs": [
        {
          "name": "_upc",
          "type": "uint256"
        }
      ],
      "name": "shipItem",
      "outputs": [],
      "payable": false,
      "stateMutability": "nonpayable",
      "type": "function"
    },
    {
      "constant": false,
      "inputs": [
        {
          "name": "_upc",
          "type": "uint256"
        }
      ],
      "name": "receiveItem",
      "outputs": [],
      "payable": false,
      "stateMutability": "nonpayable",
      "type": "function"
    },
    {
      "constant": false,
      "inputs": [
        {
          "name": "_upc",
          "type": "uint256"
        }
      ],
      "name": "purchaseItem",
      "outputs": [],
      "payable": false,
      "stateMutability": "nonpayable",
      "type": "function"
    },
    {
      "constant": true,
      "inputs": [
        {
          "name": "_upc",
          "type": "uint256"
        }
      ],
      "name": "fetchItemFarmDetails",
      "outputs": [
        {
          "name": "itemSKU",
          "type": "uint256"
        },
        {
          "name": "itemUPC",
          "type": "uint256"
        },
        {
          "name": "ownerID",
          "type": "address"
        },
        {
          "name": "originFarmerID",
          "type": "address"
        },
        {
          "name": "originFarmName",
          "type": "string"
        },
        {
          "name": "originFarmInformation",
          "type": "string"
        },
        {
          "name": "originFarmLatitude",
          "type": "string"
        },
        {
          "name": "originFarmLongitude",
          "type": "string"
        }
      ],
      "payable": false,
      "stateMutability": "view",
      "type": "function"
    },
    {
      "constant": true,
      "inputs": [
        {
          "name": "_upc",
          "type": "uint256"
        }
      ],
      "name": "fetchItemProductDetails",
      "outputs": [
        {
          "name": "itemSKU",
          "type": "uint256"
        },
        {
          "name": "itemUPC",
          "type": "uint256"
        },
        {
          "name": "productID",
          "type": "uint256"
        },
        {
          "name": "productNotes",
          "type": "string"
        },
        {
          "name": "productPrice",
          "type": "uint256"
        },
        {
          "name": "itemState",
          "type": "uint256"
        },
        {
          "name": "distributorID",
          "type": "address"
        },
        {
          "name": "retailerID",
          "type": "address"
        },
        {
          "name": "consumerID",
          "type": "address"
        }
      ],
      "payable": false,
      "stateMutability": "view",
      "type": "function"
    },
    {
      "constant": false,
      "inputs": [
        {
          "name": "_upc",
          "type": "uint256"
        },
        {
          "name": "_txhash",
          "type": "string"
        }
      ],
      "name": "addItemTransHistory",
      "outputs": [],
      "payable": false,
      "stateMutability": "nonpayable",
      "type": "function"
    },
    {
      "constant": true,
      "inputs": [
        {
          "name": "_upc",
          "type": "uint256"
        }
      ],
      "name": "getItemTransHisotry",
      "outputs": [
        {
          "name": "txHashes",
          "type": "string[]"
        }
      ],
      "payable": false,
      "stateMutability": "view",
      "type": "function"
    }
  ],
  "bytecode": "0x6080604052336000806101000a81548173ffffffffffffffffffffffffffffffffffffffff021916908373ffffffffffffffffffffffffffffffffffffffff160217905550600160028190555060018081905550611fc3806100626000396000f3006080604052600436106100c5576000357c0100000000000000000000000000000000000000000000000000000000900463ffffffff1680631084f587146100ca5780632d9235611461010f57806341c0e1b51461013857806349dae7661461014f578063a26be99914610178578063bdd8a6a8146101a1578063d38ea5bf146101ca578063e577dbef146101f3578063e7d4c10c14610237578063e7fb74c714610274578063f30fc48014610290578063f5b05655146102b9578063f61c899a146102e2575b600080fd5b3480156100d657600080fd5b506100f160048036036100ec9190810190611a1c565b61030b565b60405161010699989796959493929190611dba565b60405180910390f35b34801561011b57600080fd5b5061013660048036036101319190810190611baf565b610533565b005b34801561014457600080fd5b5061014d61067c565b005b34801561015b57600080fd5b5061017660048036036101719190810190611a1c565b61070d565b005b34801561018457600080fd5b5061019f600480360361019a9190810190611a1c565b61083b565b005b3480156101ad57600080fd5b506101c860048036036101c39190810190611a45565b6109a1565b005b3480156101d657600080fd5b506101f160048036036101ec9190810190611a1c565b610d34565b005b3480156101ff57600080fd5b5061021a60048036036102159190810190611a1c565b610e9a565b60405161022e989796959493929190611d20565b60405180910390f35b34801561024357600080fd5b5061025e60048036036102599190810190611a1c565b611231565b60405161026b9190611ce3565b60405180910390f35b61028e60048036036102899190810190611a1c565b61132d565b005b34801561029c57600080fd5b506102b760048036036102b29190810190611a1c565b6115c9565b005b3480156102c557600080fd5b506102e060048036036102db9190810190611b5b565b6116f7565b005b3480156102ee57600080fd5b5061030960048036036103049190810190611a1c565b61174b565b005b600080600060606000806000806000600360008b8152602001908152602001600020600001549850600360008b8152602001908152602001600020600101549750600360008b8152602001908152602001600020600801549650600360008b81526020019081526020016000206009018054600181600116156101000203166002900480601f01602080910402602001604051908101604052809291908181526020018280546001816001161561010002031660029004801561040f5780601f106103e45761010080835404028352916020019161040f565b820191906000526020600020905b8154815290600101906020018083116103f257829003601f168201915b50505050509550600360008b8152602001908152602001600020600a01549450600360008b8152602001908152602001600020600b0160009054906101000a900460ff16600781111561045e57fe5b9350600360008b8152602001908152602001600020600b0160019054906101000a900473ffffffffffffffffffffffffffffffffffffffff169250600360008b8152602001908152602001600020600c0160009054906101000a900473ffffffffffffffffffffffffffffffffffffffff169150600360008b8152602001908152602001600020600d0160009054906101000a900473ffffffffffffffffffffffffffffffffffffffff1690508888888888888888889850985098509850985098509850985098509193959799909294969850565b816002600781111561054157fe5b60036000838152602001908152602001600020600b0160009054906101000a900460ff16600781111561057057fe5b14151561057c57600080fd5b6003600084815260200190815260200160002060030160009054906101000a900473ffffffffffffffffffffffffffffffffffffffff168073ffffffffffffffffffffffffffffffffffffffff163373ffffffffffffffffffffffffffffffffffffffff161415156105ed57600080fd5b6003806000868152602001908152602001600020600b0160006101000a81548160ff0219169083600781111561061f57fe5b02179055508260036000868152602001908152602001600020600a01819055507fa96ae0fc3224ebd79eebfe54bd130cc9cb94416cddd1f2386115e00b725324688460405161066e9190611d05565b60405180910390a150505050565b6000809054906101000a900473ffffffffffffffffffffffffffffffffffffffff1673ffffffffffffffffffffffffffffffffffffffff163373ffffffffffffffffffffffffffffffffffffffff16141561070b576000809054906101000a900473ffffffffffffffffffffffffffffffffffffffff1673ffffffffffffffffffffffffffffffffffffffff16ff5b565b806000600781111561071b57fe5b60036000838152602001908152602001600020600b0160009054906101000a900460ff16600781111561074a57fe5b14151561075657600080fd5b6003600083815260200190815260200160002060030160009054906101000a900473ffffffffffffffffffffffffffffffffffffffff168073ffffffffffffffffffffffffffffffffffffffff163373ffffffffffffffffffffffffffffffffffffffff161415156107c757600080fd5b600160036000858152602001908152602001600020600b0160006101000a81548160ff021916908360078111156107fa57fe5b02179055507f5afe3b1bf87069693c075da5c22a98d63d1aef98a30dbbe538d0781a98b77ee58360405161082e9190611d05565b60405180910390a1505050565b806005600781111561084957fe5b60036000838152602001908152602001600020600b0160009054906101000a900460ff16600781111561087857fe5b14151561088457600080fd5b336003600084815260200190815260200160002060020160006101000a81548173ffffffffffffffffffffffffffffffffffffffff021916908373ffffffffffffffffffffffffffffffffffffffff1602179055503360036000848152602001908152602001600020600c0160006101000a81548173ffffffffffffffffffffffffffffffffffffffff021916908373ffffffffffffffffffffffffffffffffffffffff160217905550600660036000848152602001908152602001600020600b0160006101000a81548160ff0219169083600781111561096157fe5b02179055507fa8142743f8f70a4c26f3691cf4ed59718381fb2f18070ec52be1f1022d855557826040516109959190611d05565b60405180910390a15050565b6101e06040519081016040528060025481526020018881526020013373ffffffffffffffffffffffffffffffffffffffff1681526020018773ffffffffffffffffffffffffffffffffffffffff1681526020018681526020018581526020018481526020018381526020018881526020018281526020016000815260200160006007811115610a2c57fe5b8152602001600073ffffffffffffffffffffffffffffffffffffffff168152602001600073ffffffffffffffffffffffffffffffffffffffff168152602001600073ffffffffffffffffffffffffffffffffffffffff1681525060036000898152602001908152602001600020600082015181600001556020820151816001015560408201518160020160006101000a81548173ffffffffffffffffffffffffffffffffffffffff021916908373ffffffffffffffffffffffffffffffffffffffff16021790555060608201518160030160006101000a81548173ffffffffffffffffffffffffffffffffffffffff021916908373ffffffffffffffffffffffffffffffffffffffff1602179055506080820151816004019080519060200190610b57929190611879565b5060a0820151816005019080519060200190610b74929190611879565b5060c0820151816006019080519060200190610b91929190611879565b5060e0820151816007019080519060200190610bae929190611879565b506101008201518160080155610120820151816009019080519060200190610bd7929190611879565b5061014082015181600a015561016082015181600b0160006101000a81548160ff02191690836007811115610c0857fe5b021790555061018082015181600b0160016101000a81548173ffffffffffffffffffffffffffffffffffffffff021916908373ffffffffffffffffffffffffffffffffffffffff1602179055506101a082015181600c0160006101000a81548173ffffffffffffffffffffffffffffffffffffffff021916908373ffffffffffffffffffffffffffffffffffffffff1602179055506101c082015181600d0160006101000a81548173ffffffffffffffffffffffffffffffffffffffff021916908373ffffffffffffffffffffffffffffffffffffffff1602179055509050506001600254016002819055507f8e55ccfc9778ff8eba1646d765cf1982537ce0f9257054a17b48aad74525018387604051610d239190611d05565b60405180910390a150505050505050565b8060066007811115610d4257fe5b60036000838152602001908152602001600020600b0160009054906101000a900460ff166007811115610d7157fe5b141515610d7d57600080fd5b336003600084815260200190815260200160002060020160006101000a81548173ffffffffffffffffffffffffffffffffffffffff021916908373ffffffffffffffffffffffffffffffffffffffff1602179055503360036000848152602001908152602001600020600d0160006101000a81548173ffffffffffffffffffffffffffffffffffffffff021916908373ffffffffffffffffffffffffffffffffffffffff160217905550600760036000848152602001908152602001600020600b0160006101000a81548160ff02191690836007811115610e5a57fe5b02179055507f653d56639fee6b566a5c804764e9689de38645f0b733df89a36a1b7b42173dd882604051610e8e9190611d05565b60405180910390a15050565b600080600080606080606080600360008a8152602001908152602001600020600001549750600360008a8152602001908152602001600020600101549650600360008a815260200190815260200160002060020160009054906101000a900473ffffffffffffffffffffffffffffffffffffffff169550600360008a815260200190815260200160002060030160009054906101000a900473ffffffffffffffffffffffffffffffffffffffff169450600360008a81526020019081526020016000206004018054600181600116156101000203166002900480601f016020809104026020016040519081016040528092919081815260200182805460018160011615610100020316600290048015610ff45780601f10610fc957610100808354040283529160200191610ff4565b820191906000526020600020905b815481529060010190602001808311610fd757829003601f168201915b50505050509350600360008a81526020019081526020016000206005018054600181600116156101000203166002900480601f0160208091040260200160405190810160405280929190818152602001828054600181600116156101000203166002900480156110a55780601f1061107a576101008083540402835291602001916110a5565b820191906000526020600020905b81548152906001019060200180831161108857829003601f168201915b50505050509250600360008a81526020019081526020016000206006018054600181600116156101000203166002900480601f0160208091040260200160405190810160405280929190818152602001828054600181600116156101000203166002900480156111565780601f1061112b57610100808354040283529160200191611156565b820191906000526020600020905b81548152906001019060200180831161113957829003601f168201915b50505050509150600360008a81526020019081526020016000206007018054600181600116156101000203166002900480601f0160208091040260200160405190810160405280929190818152602001828054600181600116156101000203166002900480156112075780601f106111dc57610100808354040283529160200191611207565b820191906000526020600020905b8154815290600101906020018083116111ea57829003601f168201915b50505050509050878787878787878797509750975097509750975097509750919395975091939597565b606060046000838152602001908152602001600020805480602002602001604051908101604052809291908181526020016000905b82821015611322578382906000526020600020018054600181600116156101000203166002900480601f01602080910402602001604051908101604052809291908181526020018280546001816001161561010002031660029004801561130e5780601f106112e35761010080835404028352916020019161130e565b820191906000526020600020905b8154815290600101906020018083116112f157829003601f168201915b505050505081526020019060010190611266565b505050509050919050565b806003600781111561133b57fe5b60036000838152602001908152602001600020600b0160009054906101000a900460ff16600781111561136a57fe5b14151561137657600080fd5b81600060036000838152602001908152602001600020600a015490508034101515156113a157600080fd5b8360008060036000848152602001908152602001600020600a0154915081340390506000811115611414573373ffffffffffffffffffffffffffffffffffffffff166108fc829081150290604051600060405180830381858888f19350505050158015611412573d6000803e3d6000fd5b505b336003600089815260200190815260200160002060020160006101000a81548173ffffffffffffffffffffffffffffffffffffffff021916908373ffffffffffffffffffffffffffffffffffffffff1602179055503360036000898152602001908152602001600020600b0160016101000a81548173ffffffffffffffffffffffffffffffffffffffff021916908373ffffffffffffffffffffffffffffffffffffffff160217905550600460036000898152602001908152602001600020600b0160006101000a81548160ff021916908360078111156114f157fe5b02179055506003600088815260200190815260200160002060030160009054906101000a900473ffffffffffffffffffffffffffffffffffffffff1673ffffffffffffffffffffffffffffffffffffffff166108fc600360008a8152602001908152602001600020600a01549081150290604051600060405180830381858888f19350505050158015611588573d6000803e3d6000fd5b507f92f64ca637d023f354075a4be751b169c1a8a9ccb6d33cdd0cb3520543995727876040516115b89190611d05565b60405180910390a150505050505050565b80600160078111156115d757fe5b60036000838152602001908152602001600020600b0160009054906101000a900460ff16600781111561160657fe5b14151561161257600080fd5b6003600083815260200190815260200160002060030160009054906101000a900473ffffffffffffffffffffffffffffffffffffffff168073ffffffffffffffffffffffffffffffffffffffff163373ffffffffffffffffffffffffffffffffffffffff1614151561168357600080fd5b600260036000858152602001908152602001600020600b0160006101000a81548160ff021916908360078111156116b657fe5b02179055507f9b3b66e2380b690bae22c73ef1428fb0c91e72fe14a4b6defa13035214187aff836040516116ea9190611d05565b60405180910390a1505050565b600460008381526020019081526020016000208190806001815401808255809150509060018203906000526020600020016000909192909190915090805190602001906117459291906118f9565b50505050565b806004600781111561175957fe5b60036000838152602001908152602001600020600b0160009054906101000a900460ff16600781111561178857fe5b14151561179457600080fd5b60036000838152602001908152602001600020600b0160019054906101000a900473ffffffffffffffffffffffffffffffffffffffff168073ffffffffffffffffffffffffffffffffffffffff163373ffffffffffffffffffffffffffffffffffffffff1614151561180557600080fd5b600560036000858152602001908152602001600020600b0160006101000a81548160ff0219169083600781111561183857fe5b02179055507ff00b9a5725b80c54016f42114f6ed7792d22eecb116011c4afac29c57bef6c958360405161186c9190611d05565b60405180910390a1505050565b828054600181600116156101000203166002900490600052602060002090601f016020900481019282601f106118ba57805160ff19168380011785556118e8565b828001600101855582156118e8579182015b828111156118e75782518255916020019190600101906118cc565b5b5090506118f59190611979565b5090565b828054600181600116156101000203166002900490600052602060002090601f016020900481019282601f1061193a57805160ff1916838001178555611968565b82800160010185558215611968579182015b8281111561196757825182559160200191906001019061194c565b5b5090506119759190611979565b5090565b61199b91905b8082111561199757600081600090555060010161197f565b5090565b90565b60006119aa8235611f0c565b905092915050565b600082601f83011215156119c557600080fd5b81356119d86119d382611e7b565b611e4e565b915080825260208301602083018583830111156119f457600080fd5b6119ff838284611f36565b50505092915050565b6000611a148235611f2c565b905092915050565b600060208284031215611a2e57600080fd5b6000611a3c84828501611a08565b91505092915050565b600080600080600080600060e0888a031215611a6057600080fd5b6000611a6e8a828b01611a08565b9750506020611a7f8a828b0161199e565b965050604088013567ffffffffffffffff811115611a9c57600080fd5b611aa88a828b016119b2565b955050606088013567ffffffffffffffff811115611ac557600080fd5b611ad18a828b016119b2565b945050608088013567ffffffffffffffff811115611aee57600080fd5b611afa8a828b016119b2565b93505060a088013567ffffffffffffffff811115611b1757600080fd5b611b238a828b016119b2565b92505060c088013567ffffffffffffffff811115611b4057600080fd5b611b4c8a828b016119b2565b91505092959891949750929550565b60008060408385031215611b6e57600080fd5b6000611b7c85828601611a08565b925050602083013567ffffffffffffffff811115611b9957600080fd5b611ba5858286016119b2565b9150509250929050565b60008060408385031215611bc257600080fd5b6000611bd085828601611a08565b9250506020611be185828601611a08565b9150509250929050565b611bf481611ee2565b82525050565b6000611c0582611eb4565b80845260208401935083602082028501611c1e85611ea7565b60005b84811015611c57578383038852611c39838351611c9e565b9250611c4482611ed5565b9150602088019750600181019050611c21565b508196508694505050505092915050565b6000611c7382611eca565b808452611c87816020860160208601611f45565b611c9081611f78565b602085010191505092915050565b6000611ca982611ebf565b808452611cbd816020860160208601611f45565b611cc681611f78565b602085010191505092915050565b611cdd81611f02565b82525050565b60006020820190508181036000830152611cfd8184611bfa565b905092915050565b6000602082019050611d1a6000830184611cd4565b92915050565b600061010082019050611d36600083018b611cd4565b611d43602083018a611cd4565b611d506040830189611beb565b611d5d6060830188611beb565b8181036080830152611d6f8187611c68565b905081810360a0830152611d838186611c68565b905081810360c0830152611d978185611c68565b905081810360e0830152611dab8184611c68565b90509998505050505050505050565b600061012082019050611dd0600083018c611cd4565b611ddd602083018b611cd4565b611dea604083018a611cd4565b8181036060830152611dfc8189611c68565b9050611e0b6080830188611cd4565b611e1860a0830187611cd4565b611e2560c0830186611beb565b611e3260e0830185611beb565b611e40610100830184611beb565b9a9950505050505050505050565b6000604051905081810181811067ffffffffffffffff82111715611e7157600080fd5b8060405250919050565b600067ffffffffffffffff821115611e9257600080fd5b601f19601f8301169050602081019050919050565b6000602082019050919050565b600081519050919050565b600081519050919050565b600081519050919050565b6000602082019050919050565b600073ffffffffffffffffffffffffffffffffffffffff82169050919050565b6000819050919050565b600073ffffffffffffffffffffffffffffffffffffffff82169050919050565b6000819050919050565b82818337600083830152505050565b60005b83811015611f63578082015181840152602081019050611f48565b83811115611f72576000848401525b50505050565b6000601f19601f83011690509190505600a265627a7a7230582019d2fdc9e0d43e3f66a4bf0b005972455a7a25b82cc67fe79cc0215feb8b0ee16c6578706572696d656e74616cf50037",
  "source": "pragma solidity ^0.4.24;\r\npragma experimental ABIEncoderV2;\r\n\r\n// Define a contract 'Supplychain'\r\ncontract SupplyChain {\r\n\r\n  // Define 'owner'\r\n  address owner;\r\n\r\n  // Define a variable called 'upc' for Universal Product Code (UPC)\r\n  uint  upc;\r\n\r\n  // Define a variable called 'sku' for Stock Keeping Unit (SKU)\r\n  uint  sku;\r\n  \r\n  // Define enum 'State' with the following values:\r\n  enum State { \r\n    Harvested,  // 0\r\n    Processed,  // 1\r\n    Packed,     // 2\r\n    ForSale,    // 3\r\n    Sold,       // 4\r\n    Shipped,    // 5\r\n    Received,   // 6\r\n    Purchased   // 7\r\n  }\r\n\r\n  State constant defaultState = State.Harvested;\r\n\r\n  // Define a struct 'Item' with the following fields:\r\n  struct Item {\r\n    uint    sku;  // Stock Keeping Unit (SKU)\r\n    uint    upc; // Universal Product Code (UPC), generated by the Farmer, goes on the package, can be verified by the Consumer\r\n    address ownerID;  // Metamask-Ethereum address of the current owner as the product moves through 8 stages\r\n    address originFarmerID; // Metamask-Ethereum address of the Farmer\r\n    string  originFarmName; // Farmer Name\r\n    string  originFarmInformation;  // Farmer Information\r\n    string  originFarmLatitude; // Farm Latitude\r\n    string  originFarmLongitude;  // Farm Longitude\r\n    uint    productID;  // Product ID potentially a combination of upc + sku\r\n    string  productNotes; // Product Notes\r\n    uint    productPrice; // Product Price\r\n    State   itemState;  // Product State as represented in the enum above\r\n    address distributorID;  // Metamask-Ethereum address of the Distributor\r\n    address retailerID; // Metamask-Ethereum address of the Retailer\r\n    address consumerID; // Metamask-Ethereum address of the Consumer\r\n  }\r\n\r\n  // Define a public mapping 'items' that maps the UPC to an Item.\r\n  mapping (uint => Item) items;\r\n\r\n  // Define a public mapping 'itemsHistory' that maps the UPC to an array of TxHash, \r\n  // that track its journey through the supply chain -- to be sent from DApp.\r\n  mapping (uint => string[]) itemsHistory;\r\n\r\n  // Define 8 events with the same 8 state values and accept 'upc' as input argument\r\n  event Harvested(uint upc);\r\n  event Processed(uint upc);\r\n  event Packed(uint upc);\r\n  event ForSale(uint upc);\r\n  event Sold(uint upc);\r\n  event Shipped(uint upc);\r\n  event Received(uint upc);\r\n  event Purchased(uint upc);\r\n\r\n  // Define a modifer that checks to see if msg.sender == owner of the contract\r\n  modifier onlyOwner() {\r\n    require(msg.sender == owner);\r\n    _;\r\n  }\r\n\r\n  // Define a modifer that verifies the Caller\r\n  modifier verifyCaller(address _address) {\r\n    require(msg.sender == _address); \r\n    _;\r\n  }\r\n\r\n  // Define a modifier that checks if the paid amount is sufficient to cover the price\r\n  modifier paidEnough(uint _upc) { \r\n    uint _price = items[_upc].productPrice;\r\n    require(msg.value >= _price); \r\n    _;\r\n  }\r\n  \r\n  // Define a modifier that checks the price and refunds the remaining balance\r\n  modifier checkValue(uint _upc) {\r\n    uint _price = items[_upc].productPrice;\r\n    uint amountToReturn = msg.value - _price;\r\n    if(amountToReturn > 0) {\r\n        msg.sender.transfer(amountToReturn);\r\n    }\r\n//    items[_upc].consumerID.transfer(amountToReturn);\r\n    _;\r\n  }\r\n\r\n  // Define a modifier that checks if an item.state of a upc is Harvested\r\n  modifier harvested(uint _upc) {\r\n    require(items[_upc].itemState == State.Harvested);\r\n    _;\r\n  }\r\n\r\n  // Define a modifier that checks if an item.state of a upc is Processed\r\n  modifier processed(uint _upc) {\r\n    require(items[_upc].itemState == State.Processed);\r\n    _;\r\n  }\r\n  \r\n  // Define a modifier that checks if an item.state of a upc is Packed\r\n  modifier packed(uint _upc) {\r\n    require(items[_upc].itemState == State.Packed);\r\n    _;\r\n  }\r\n\r\n  // Define a modifier that checks if an item.state of a upc is ForSale\r\n  modifier forSale(uint _upc) {\r\n    require(items[_upc].itemState == State.ForSale);\r\n    _;\r\n  }\r\n\r\n  // Define a modifier that checks if an item.state of a upc is Sold\r\n  modifier sold(uint _upc) {\r\n    require(items[_upc].itemState == State.Sold);\r\n    _;\r\n  }\r\n  \r\n  // Define a modifier that checks if an item.state of a upc is Shipped\r\n  modifier shipped(uint _upc) {\r\n    require(items[_upc].itemState == State.Shipped);\r\n    _;\r\n  }\r\n\r\n  // Define a modifier that checks if an item.state of a upc is Received\r\n  modifier received(uint _upc) {\r\n    require(items[_upc].itemState == State.Received);\r\n    _;\r\n  }\r\n\r\n  // Define a modifier that checks if an item.state of a upc is Purchased\r\n  modifier purchased(uint _upc) {\r\n    require(items[_upc].itemState == State.Purchased);    \r\n    _;\r\n  }\r\n\r\n  // In the constructor set 'owner' to the address that instantiated the contract\r\n  // and set 'sku' to 1\r\n  // and set 'upc' to 1\r\n  constructor() public payable {\r\n    owner = msg.sender;\r\n    sku = 1;\r\n    upc = 1;\r\n  }\r\n\r\n  // Define a function 'kill' if required\r\n  function kill() public {\r\n    if (msg.sender == owner) {\r\n      selfdestruct(owner);\r\n    }\r\n  }\r\n\r\n  // Define a function 'harvestItem' that allows a farmer to mark an item 'Harvested'\r\n  function harvestItem(uint _upc, address _originFarmerID, string _originFarmName, string _originFarmInformation, \r\n    string  _originFarmLatitude, string  _originFarmLongitude, string  _productNotes) public {\r\n    // Add the new item as part of Harvest\r\n    items[_upc] = Item({sku:sku, upc:_upc, ownerID:msg.sender, originFarmerID:_originFarmerID, \r\n                    originFarmName:_originFarmName, originFarmInformation:_originFarmInformation,\r\n                    originFarmLatitude:_originFarmLatitude, originFarmLongitude:_originFarmLongitude,\r\n                    productID:_upc, productNotes:_productNotes, itemState:State.Harvested,\r\n                    productPrice:0, distributorID:0, retailerID:0, consumerID:0});\r\n    // Increment sku\r\n    sku = sku + 1;\r\n    emit Harvested(_upc);    \r\n  }\r\n\r\n  // Define a function 'processtItem' that allows a farmer to mark an item 'Processed'\r\n  function processItem(uint _upc) public harvested(_upc) verifyCaller(items[_upc].originFarmerID) {\r\n    items[_upc].itemState = State.Processed;\r\n    \r\n    emit Processed(_upc);\r\n    \r\n  }\r\n\r\n  // Define a function 'packItem' that allows a farmer to mark an item 'Packed'\r\n  function packItem(uint _upc) public processed(_upc) verifyCaller(items[_upc].originFarmerID) {\r\n    items[_upc].itemState = State.Packed;\r\n    \r\n    emit Packed(_upc);    \r\n  }\r\n\r\n  // Define a function 'sellItem' that allows a farmer to mark an item 'ForSale'\r\n  function sellItem(uint _upc, uint _price) public packed(_upc) verifyCaller(items[_upc].originFarmerID) {\r\n    items[_upc].itemState = State.ForSale;\r\n    items[_upc].productPrice = _price;\r\n\r\n    emit ForSale(_upc);    \r\n  }\r\n\r\n  // Define a function 'buyItem' that allows the disributor to mark an item 'Sold'\r\n  function buyItem(uint _upc) public payable forSale(_upc) paidEnough(_upc) checkValue(_upc) {\r\n    \r\n    // Update the appropriate fields - ownerID, distributorID, itemState\r\n    items[_upc].ownerID = msg.sender;\r\n    items[_upc].distributorID = msg.sender;\r\n    items[_upc].itemState = State.Sold;\r\n    // Transfer money to farmer\r\n    items[_upc].originFarmerID.transfer(items[_upc].productPrice);\r\n    \r\n    emit Sold(_upc);\r\n  }\r\n\r\n  // Define a function 'shipItem' that allows the distributor to mark an item 'Shipped'\r\n  function shipItem(uint _upc) public sold(_upc) verifyCaller(items[_upc].distributorID) {\r\n    items[_upc].itemState = State.Shipped;\r\n    \r\n    emit Shipped(_upc);   \r\n  }\r\n\r\n  // Define a function 'receiveItem' that allows the retailer to mark an item 'Received'\r\n  function receiveItem(uint _upc) public shipped(_upc) {\r\n    // Access Control List enforced by calling Smart Contract / DApp\r\n    items[_upc].ownerID = msg.sender;\r\n    items[_upc].retailerID = msg.sender;\r\n    items[_upc].itemState = State.Received;\r\n    \r\n    emit Received(_upc);  \r\n  }\r\n\r\n  // Define a function 'purchaseItem' that allows the consumer to mark an item 'Purchased'\r\n  function purchaseItem(uint _upc) public received(_upc) {\r\n    // Access Control List enforced by calling Smart Contract / DApp\r\n    items[_upc].ownerID = msg.sender;\r\n    items[_upc].consumerID = msg.sender;\r\n    items[_upc].itemState = State.Purchased;\r\n    \r\n    emit Purchased(_upc);  \r\n  }\r\n\r\n  // Define a function 'fetchItemFarmDetails' that fetches the data\r\n  function fetchItemFarmDetails(uint _upc) public view returns \r\n  (\r\n  uint    itemSKU,\r\n  uint    itemUPC,\r\n  address ownerID,\r\n  address originFarmerID,\r\n  string  originFarmName,\r\n  string  originFarmInformation,\r\n  string  originFarmLatitude,\r\n  string  originFarmLongitude\r\n  ) \r\n  {\r\n    itemSKU = items[_upc].sku;\r\n    itemUPC = items[_upc].upc;\r\n    ownerID = items[_upc].ownerID;\r\n    originFarmerID = items[_upc].originFarmerID;\r\n    originFarmName = items[_upc].originFarmName;\r\n    originFarmInformation = items[_upc].originFarmInformation;\r\n    originFarmLatitude = items[_upc].originFarmLatitude;\r\n    originFarmLongitude = items[_upc].originFarmLongitude;\r\n  \r\n    return \r\n    (\r\n      itemSKU,\r\n      itemUPC,\r\n      ownerID,\r\n      originFarmerID,\r\n      originFarmName,\r\n      originFarmInformation,\r\n      originFarmLatitude,\r\n      originFarmLongitude\r\n    );\r\n  }\r\n\r\n  // Define a function 'fetchItemProductDetails' that fetches the data\r\n  function fetchItemProductDetails(uint _upc) public view returns \r\n  (\r\n  uint    itemSKU,\r\n  uint    itemUPC,\r\n  uint    productID,\r\n  string  productNotes,\r\n  uint    productPrice,\r\n  uint    itemState,\r\n  address distributorID,\r\n  address retailerID,\r\n  address consumerID\r\n  ) \r\n  {\r\n    // Assign values to the 9 parameters\r\n    itemSKU = items[_upc].sku;\r\n    itemUPC = items[_upc].upc;\r\n    productID = items[_upc].productID;\r\n    productNotes = items[_upc].productNotes;\r\n    productPrice = items[_upc].productPrice;\r\n    itemState = uint(items[_upc].itemState);\r\n    distributorID = items[_upc].distributorID;\r\n    retailerID = items[_upc].retailerID;\r\n    consumerID = items[_upc].consumerID;\r\n    \r\n    return \r\n    (\r\n    itemSKU,\r\n    itemUPC,\r\n    productID,\r\n    productNotes,\r\n    productPrice,\r\n    itemState,\r\n    distributorID,\r\n    retailerID,\r\n    consumerID\r\n    );\r\n  }\r\n\r\n  function addItemTransHistory(uint _upc, string memory _txhash) public {\r\n      itemsHistory[_upc].push(_txhash);\r\n  }\r\n\r\n  function getItemTransHisotry(uint _upc) public view returns (string[] memory txHashes) {\r\n    return itemsHistory[_upc];\r\n  }\r\n}\r\n",
  "sourcePath": "C:\\Users\\sures\\Documents\\GitHub\\FinTech\\supply-chain\\contracts\\coffeebase\\SupplyChain.sol",
  "compiler": {
    "name": "solc",
    "version": "0.4.24+commit.e67f0147.Emscripten.clang"
  },
  "schemaVersion": "2.0.1",
  "updatedAt": "2022-01-30T19:40:06.531Z"
}