{
  "contractName": "TestProduct",
  "abi": [
    {
      "constant": true,
      "inputs": [],
      "name": "name",
      "outputs": [
        {
          "name": "",
          "type": "string"
        }
      ],
      "payable": false,
      "stateMutability": "view",
      "type": "function"
    },
    {
      "constant": false,
      "inputs": [
        {
          "name": "_name",
          "type": "string"
        }
      ],
      "name": "setName",
      "outputs": [],
      "payable": false,
      "stateMutability": "nonpayable",
      "type": "function"
    }
  ],
  "bytecode": "0x608060405234801561001057600080fd5b506102d3806100206000396000f30060806040526004361061004c576000357c0100000000000000000000000000000000000000000000000000000000900463ffffffff16806306fdde0314610051578063c47f0027146100e1575b600080fd5b34801561005d57600080fd5b5061006661014a565b6040518080602001828103825283818151815260200191508051906020019080838360005b838110156100a657808201518184015260208101905061008b565b50505050905090810190601f1680156100d35780820380516001836020036101000a031916815260200191505b509250505060405180910390f35b3480156100ed57600080fd5b50610148600480360381019080803590602001908201803590602001908080601f01602080910402602001604051908101604052809392919081815260200183838082843782019150505050505091929192905050506101e8565b005b60008054600181600116156101000203166002900480601f0160208091040260200160405190810160405280929190818152602001828054600181600116156101000203166002900480156101e05780601f106101b5576101008083540402835291602001916101e0565b820191906000526020600020905b8154815290600101906020018083116101c357829003601f168201915b505050505081565b80600090805190602001906101fe929190610202565b5050565b828054600181600116156101000203166002900490600052602060002090601f016020900481019282601f1061024357805160ff1916838001178555610271565b82800160010185558215610271579182015b82811115610270578251825591602001919060010190610255565b5b50905061027e9190610282565b5090565b6102a491905b808211156102a0576000816000905550600101610288565b5090565b905600a165627a7a7230582012380ef9b708396ef256eeac3e8bf11ccebf2fc4c33ea6531b0eb56807e19a900029",
  "source": "pragma solidity ^0.4.24;\r\n\r\ncontract TestProduct {\r\n\r\n    string public name;\r\n    \r\n    function setName(string memory _name) public {\r\n        name = _name;\r\n        return;\r\n    }\r\n    \r\n}",
  "sourcePath": "C:\\Users\\sures\\Documents\\GitHub\\FinTech\\supply-chain\\contracts\\TestProduct.sol",
  "compiler": {
    "name": "solc",
    "version": "0.4.24+commit.e67f0147.Emscripten.clang"
  },
  "schemaVersion": "2.0.1",
  "updatedAt": "2022-02-03T22:36:31.315Z"
}